{
  "contractName": "Certificate",
  "abi": [
    {
      "anonymous": false,
      "inputs": [
        {
          "indexed": true,
          "internalType": "address",
          "name": "student",
          "type": "address"
        },
        {
          "indexed": false,
          "internalType": "string",
          "name": "studentName",
          "type": "string"
        },
        {
          "indexed": false,
          "internalType": "string",
          "name": "degree",
          "type": "string"
        },
        {
          "indexed": false,
          "internalType": "uint256",
          "name": "graduationDate",
          "type": "uint256"
        }
      ],
      "name": "CertificateIssued",
      "type": "event"
    },
    {
      "inputs": [
        {
          "internalType": "address",
          "name": "",
          "type": "address"
        }
      ],
      "name": "certificates",
      "outputs": [
        {
          "internalType": "string",
          "name": "studentName",
          "type": "string"
        },
        {
          "internalType": "string",
          "name": "degree",
          "type": "string"
        },
        {
          "internalType": "uint256",
          "name": "graduationDate",
          "type": "uint256"
        },
        {
          "internalType": "bool",
          "name": "isIssued",
          "type": "bool"
        }
      ],
      "stateMutability": "view",
      "type": "function"
    },
    {
      "inputs": [
        {
          "internalType": "string",
          "name": "studentName",
          "type": "string"
        },
        {
          "internalType": "string",
          "name": "degree",
          "type": "string"
        },
        {
          "internalType": "uint256",
          "name": "graduationDate",
          "type": "uint256"
        }
      ],
      "name": "issueCertificate",
      "outputs": [],
      "stateMutability": "nonpayable",
      "type": "function"
    },
    {
      "inputs": [
        {
          "internalType": "address",
          "name": "student",
          "type": "address"
        }
      ],
      "name": "getCertificateDetails",
      "outputs": [
        {
          "internalType": "string",
          "name": "",
          "type": "string"
        },
        {
          "internalType": "string",
          "name": "",
          "type": "string"
        },
        {
          "internalType": "uint256",
          "name": "",
          "type": "uint256"
        },
        {
          "internalType": "bool",
          "name": "",
          "type": "bool"
        }
      ],
      "stateMutability": "view",
      "type": "function"
    }
  ],
  "bytecode": "0x608060405234801561000f575f80fd5b50610c858061001d5f395ff3fe608060405234801561000f575f80fd5b506004361061003e575f3560e01c806216e5261461004257806316e3620414610075578063291fd18f146100a8575b5f80fd5b61005c600480360381019061005791906105c5565b6100c4565b60405161006c94939291906106ac565b60405180910390f35b61008f600480360381019061008a91906105c5565b610207565b60405161009f94939291906106ac565b60405180910390f35b6100c260048036038101906100bd9190610853565b6103bc565b005b5f602052805f5260405f205f91509050805f0180546100e290610908565b80601f016020809104026020016040519081016040528092919081815260200182805461010e90610908565b80156101595780601f1061013057610100808354040283529160200191610159565b820191905f5260205f20905b81548152906001019060200180831161013c57829003601f168201915b50505050509080600101805461016e90610908565b80601f016020809104026020016040519081016040528092919081815260200182805461019a90610908565b80156101e55780601f106101bc576101008083540402835291602001916101e5565b820191905f5260205f20905b8154815290600101906020018083116101c857829003601f168201915b505050505090806002015490806003015f9054906101000a900460ff16905084565b6060805f805f805f8773ffffffffffffffffffffffffffffffffffffffff1673ffffffffffffffffffffffffffffffffffffffff1681526020019081526020015f206040518060800160405290815f8201805461026390610908565b80601f016020809104026020016040519081016040528092919081815260200182805461028f90610908565b80156102da5780601f106102b1576101008083540402835291602001916102da565b820191905f5260205f20905b8154815290600101906020018083116102bd57829003601f168201915b505050505081526020016001820180546102f390610908565b80601f016020809104026020016040519081016040528092919081815260200182805461031f90610908565b801561036a5780601f106103415761010080835404028352916020019161036a565b820191905f5260205f20905b81548152906001019060200180831161034d57829003601f168201915b5050505050815260200160028201548152602001600382015f9054906101000a900460ff1615151515815250509050805f01518160200151826040015183606001519450945094509450509193509193565b5f803373ffffffffffffffffffffffffffffffffffffffff1673ffffffffffffffffffffffffffffffffffffffff1681526020019081526020015f206003015f9054906101000a900460ff1615610448576040517f08c379a000000000000000000000000000000000000000000000000000000000815260040161043f90610982565b60405180910390fd5b5f6040518060800160405280858152602001848152602001838152602001600115158152509050805f803373ffffffffffffffffffffffffffffffffffffffff1673ffffffffffffffffffffffffffffffffffffffff1681526020019081526020015f205f820151815f0190816104bf9190610b3d565b5060208201518160010190816104d59190610b3d565b50604082015181600201556060820151816003015f6101000a81548160ff0219169083151502179055509050503373ffffffffffffffffffffffffffffffffffffffff167ffc04e6ee7273408aa842fb2467d7b5f0aca21e3781a0dc2d0d872ed96d5d114a85858560405161054c93929190610c0c565b60405180910390a250505050565b5f604051905090565b5f80fd5b5f80fd5b5f73ffffffffffffffffffffffffffffffffffffffff82169050919050565b5f6105948261056b565b9050919050565b6105a48161058a565b81146105ae575f80fd5b50565b5f813590506105bf8161059b565b92915050565b5f602082840312156105da576105d9610563565b5b5f6105e7848285016105b1565b91505092915050565b5f81519050919050565b5f82825260208201905092915050565b5f5b8381101561062757808201518184015260208101905061060c565b5f8484015250505050565b5f601f19601f8301169050919050565b5f61064c826105f0565b61065681856105fa565b935061066681856020860161060a565b61066f81610632565b840191505092915050565b5f819050919050565b61068c8161067a565b82525050565b5f8115159050919050565b6106a681610692565b82525050565b5f6080820190508181035f8301526106c48187610642565b905081810360208301526106d88186610642565b90506106e76040830185610683565b6106f4606083018461069d565b95945050505050565b5f80fd5b5f80fd5b7f4e487b71000000000000000000000000000000000000000000000000000000005f52604160045260245ffd5b61073b82610632565b810181811067ffffffffffffffff8211171561075a57610759610705565b5b80604052505050565b5f61076c61055a565b90506107788282610732565b919050565b5f67ffffffffffffffff82111561079757610796610705565b5b6107a082610632565b9050602081019050919050565b828183375f83830152505050565b5f6107cd6107c88461077d565b610763565b9050828152602081018484840111156107e9576107e8610701565b5b6107f48482856107ad565b509392505050565b5f82601f8301126108105761080f6106fd565b5b81356108208482602086016107bb565b91505092915050565b6108328161067a565b811461083c575f80fd5b50565b5f8135905061084d81610829565b92915050565b5f805f6060848603121561086a57610869610563565b5b5f84013567ffffffffffffffff81111561088757610886610567565b5b610893868287016107fc565b935050602084013567ffffffffffffffff8111156108b4576108b3610567565b5b6108c0868287016107fc565b92505060406108d18682870161083f565b9150509250925092565b7f4e487b71000000000000000000000000000000000000000000000000000000005f52602260045260245ffd5b5f600282049050600182168061091f57607f821691505b602082108103610932576109316108db565b5b50919050565b7f436572746966696361746520616c7265616479206973737565640000000000005f82015250565b5f61096c601a836105fa565b915061097782610938565b602082019050919050565b5f6020820190508181035f83015261099981610960565b9050919050565b5f819050815f5260205f209050919050565b5f6020601f8301049050919050565b5f82821b905092915050565b5f600883026109fc7fffffffffffffffffffffffffffffffffffffffffffffffffffffffffffffffff826109c1565b610a0686836109c1565b95508019841693508086168417925050509392505050565b5f819050919050565b5f610a41610a3c610a378461067a565b610a1e565b61067a565b9050919050565b5f819050919050565b610a5a83610a27565b610a6e610a6682610a48565b8484546109cd565b825550505050565b5f90565b610a82610a76565b610a8d818484610a51565b505050565b5b81811015610ab057610aa55f82610a7a565b600181019050610a93565b5050565b601f821115610af557610ac6816109a0565b610acf846109b2565b81016020851015610ade578190505b610af2610aea856109b2565b830182610a92565b50505b505050565b5f82821c905092915050565b5f610b155f1984600802610afa565b1980831691505092915050565b5f610b2d8383610b06565b9150826002028217905092915050565b610b46826105f0565b67ffffffffffffffff811115610b5f57610b5e610705565b5b610b698254610908565b610b74828285610ab4565b5f60209050601f831160018114610ba5575f8415610b93578287015190505b610b9d8582610b22565b865550610c04565b601f198416610bb3866109a0565b5f5b82811015610bda57848901518255600182019150602085019450602081019050610bb5565b86831015610bf75784890151610bf3601f891682610b06565b8355505b6001600288020188555050505b505050505050565b5f6060820190508181035f830152610c248186610642565b90508181036020830152610c388185610642565b9050610c476040830184610683565b94935050505056fea26469706673582212207a00938c45c32c3a70ad9e82e2b39c428681bb09cf85fd857ef040c163ad69be64736f6c63430008150033",
  "immutableReferences": {},
  "source": "// SPDX-License-Identifier: MIT\npragma solidity ^0.8.0;\n\ncontract Certificate {\n    struct AcademicCertificate {\n        string studentName;\n        string degree;\n        uint256 graduationDate;\n        bool isIssued;\n    }\n\n    mapping(address => AcademicCertificate) public certificates;\n\n    event CertificateIssued(address indexed student, string studentName, string degree, uint256 graduationDate);\n\n    function issueCertificate(\n        string memory studentName,\n        string memory degree,\n        uint256 graduationDate\n    ) public {\n        require(!certificates[msg.sender].isIssued, \"Certificate already issued\");\n\n        AcademicCertificate memory newCertificate = AcademicCertificate({\n            studentName: studentName,\n            degree: degree,\n            graduationDate: graduationDate,\n            isIssued: true\n        });\n\n        certificates[msg.sender] = newCertificate;\n\n        emit CertificateIssued(msg.sender, studentName, degree, graduationDate);\n    }\n\n    function getCertificateDetails(address student) public view returns (string memory, string memory, uint256, bool) {\n        AcademicCertificate memory certificate = certificates[student];\n        return (certificate.studentName, certificate.degree, certificate.graduationDate, certificate.isIssued);\n    }\n}\n",
  "sourcePath": "/workspaces/Blockchain-Powered-Credential-Verification-System-for-Academic-Certificates/contracts/Certificate.sol",
  "compiler": {
    "name": "solc",
    "version": "0.8.21+commit.d9974bed.Emscripten.clang"
  },
  "schemaVersion": "3.4.16",
  "updatedAt": "2024-01-26T20:21:06.009Z",
  "devdoc": {
    "kind": "dev",
    "methods": {},
    "version": 1
  },
  "userdoc": {
    "kind": "user",
    "methods": {},
    "version": 1
  }
}