{
  "contractName": "CertificateVerifier",
  "abi": [
    {
      "inputs": [
        {
          "internalType": "address",
          "name": "_certificateContractAddress",
          "type": "address"
        }
      ],
      "stateMutability": "nonpayable",
      "type": "constructor"
    },
    {
      "anonymous": false,
      "inputs": [
        {
          "indexed": true,
          "internalType": "address",
          "name": "verifier",
          "type": "address"
        },
        {
          "indexed": true,
          "internalType": "address",
          "name": "student",
          "type": "address"
        },
        {
          "indexed": false,
          "internalType": "bool",
          "name": "isValid",
          "type": "bool"
        }
      ],
      "name": "CertificateVerified",
      "type": "event"
    },
    {
      "inputs": [
        {
          "internalType": "address",
          "name": "student",
          "type": "address"
        }
      ],
      "name": "verifyCertificate",
      "outputs": [
        {
          "internalType": "bool",
          "name": "",
          "type": "bool"
        }
      ],
      "stateMutability": "nonpayable",
      "type": "function"
    }
  ],
  "bytecode": "0x608060405234801561000f575f80fd5b506040516105fd3803806105fd833981810160405281019061003191906100d4565b805f806101000a81548173ffffffffffffffffffffffffffffffffffffffff021916908373ffffffffffffffffffffffffffffffffffffffff160217905550506100ff565b5f80fd5b5f73ffffffffffffffffffffffffffffffffffffffff82169050919050565b5f6100a38261007a565b9050919050565b6100b381610099565b81146100bd575f80fd5b50565b5f815190506100ce816100aa565b92915050565b5f602082840312156100e9576100e8610076565b5b5f6100f6848285016100c0565b91505092915050565b6104f18061010c5f395ff3fe608060405234801561000f575f80fd5b5060043610610029575f3560e01c80636b9afc901461002d575b5f80fd5b610047600480360381019061004291906101e6565b61005d565b604051610054919061022b565b60405180910390f35b5f805f805f805f9054906101000a900473ffffffffffffffffffffffffffffffffffffffff1673ffffffffffffffffffffffffffffffffffffffff166316e36204876040518263ffffffff1660e01b81526004016100bb9190610253565b5f60405180830381865afa1580156100d5573d5f803e3d5ffd5b505050506040513d5f823e3d601f19601f820116820180604052508101906100fd919061041f565b93509350935093505f8190508673ffffffffffffffffffffffffffffffffffffffff163373ffffffffffffffffffffffffffffffffffffffff167f4b40c57a997772a9ab581d98d543c3fc05160eead5ef90bc03ec19c9134a81fe83604051610166919061022b565b60405180910390a38095505050505050919050565b5f604051905090565b5f80fd5b5f80fd5b5f73ffffffffffffffffffffffffffffffffffffffff82169050919050565b5f6101b58261018c565b9050919050565b6101c5816101ab565b81146101cf575f80fd5b50565b5f813590506101e0816101bc565b92915050565b5f602082840312156101fb576101fa610184565b5b5f610208848285016101d2565b91505092915050565b5f8115159050919050565b61022581610211565b82525050565b5f60208201905061023e5f83018461021c565b92915050565b61024d816101ab565b82525050565b5f6020820190506102665f830184610244565b92915050565b5f80fd5b5f80fd5b5f601f19601f8301169050919050565b7f4e487b71000000000000000000000000000000000000000000000000000000005f52604160045260245ffd5b6102ba82610274565b810181811067ffffffffffffffff821117156102d9576102d8610284565b5b80604052505050565b5f6102eb61017b565b90506102f782826102b1565b919050565b5f67ffffffffffffffff82111561031657610315610284565b5b61031f82610274565b9050602081019050919050565b5f5b8381101561034957808201518184015260208101905061032e565b5f8484015250505050565b5f610366610361846102fc565b6102e2565b90508281526020810184848401111561038257610381610270565b5b61038d84828561032c565b509392505050565b5f82601f8301126103a9576103a861026c565b5b81516103b9848260208601610354565b91505092915050565b5f819050919050565b6103d4816103c2565b81146103de575f80fd5b50565b5f815190506103ef816103cb565b92915050565b6103fe81610211565b8114610408575f80fd5b50565b5f81519050610419816103f5565b92915050565b5f805f806080858703121561043757610436610184565b5b5f85015167ffffffffffffffff81111561045457610453610188565b5b61046087828801610395565b945050602085015167ffffffffffffffff81111561048157610480610188565b5b61048d87828801610395565b935050604061049e878288016103e1565b92505060606104af8782880161040b565b9150509295919450925056fea2646970667358221220083e8c4a659bb81f8fc361e64be831365d202ae1c5e3b27ab4c35a2645a0b10b64736f6c63430008150033",
  "immutableReferences": {},
  "source": "// SPDX-License-Identifier: MIT\npragma solidity ^0.8.0;\n\nimport \"./Certificate.sol\";\n\ncontract CertificateVerifier {\n    Certificate private certificateContract;\n\n    event CertificateVerified(address indexed verifier, address indexed student, bool isValid);\n\n    constructor(address _certificateContractAddress) {\n        certificateContract = Certificate(_certificateContractAddress);\n    }\n\n    function verifyCertificate(address student) public returns (bool) {\n    (string memory studentName, string memory degree, uint256 graduationDate, bool isIssued) = certificateContract.getCertificateDetails(student); // solhint-disable-line unused-local-variable\n\n    // Perform your verification logic here\n    bool isValid = isIssued;\n\n    emit CertificateVerified(msg.sender, student, isValid);\n\n    return isValid;\n}\n\n\n}\n",
  "sourcePath": "/workspaces/Blockchain-Powered-Credential-Verification-System-for-Academic-Certificates/contracts/CertificateVerifier.sol",
  "compiler": {
    "name": "solc",
    "version": "0.8.21+commit.d9974bed.Emscripten.clang"
  },
  "schemaVersion": "3.4.16",
  "updatedAt": "2024-01-26T20:29:02.027Z",
  "devdoc": {
    "kind": "dev",
    "methods": {},
    "version": 1
  },
  "userdoc": {
    "kind": "user",
    "methods": {},
    "version": 1
  }
}